{
  "contractName": "DecentralBank",
  "abi": [
    {
      "inputs": [
        {
          "internalType": "contract RWD",
          "name": "_rwd",
          "type": "address"
        },
        {
          "internalType": "contract Tether",
          "name": "_tether",
          "type": "address"
        }
      ],
      "payable": false,
      "stateMutability": "nonpayable",
      "type": "constructor"
    },
    {
      "constant": true,
      "inputs": [
        {
          "internalType": "address",
          "name": "",
          "type": "address"
        }
      ],
      "name": "hasStaked",
      "outputs": [
        {
          "internalType": "bool",
          "name": "",
          "type": "bool"
        }
      ],
      "payable": false,
      "stateMutability": "view",
      "type": "function"
    },
    {
      "constant": true,
      "inputs": [
        {
          "internalType": "address",
          "name": "",
          "type": "address"
        }
      ],
      "name": "isStaked",
      "outputs": [
        {
          "internalType": "bool",
          "name": "",
          "type": "bool"
        }
      ],
      "payable": false,
      "stateMutability": "view",
      "type": "function"
    },
    {
      "constant": true,
      "inputs": [],
      "name": "name",
      "outputs": [
        {
          "internalType": "string",
          "name": "",
          "type": "string"
        }
      ],
      "payable": false,
      "stateMutability": "view",
      "type": "function"
    },
    {
      "constant": true,
      "inputs": [],
      "name": "owner",
      "outputs": [
        {
          "internalType": "address",
          "name": "",
          "type": "address"
        }
      ],
      "payable": false,
      "stateMutability": "view",
      "type": "function"
    },
    {
      "constant": true,
      "inputs": [],
      "name": "rwd",
      "outputs": [
        {
          "internalType": "contract RWD",
          "name": "",
          "type": "address"
        }
      ],
      "payable": false,
      "stateMutability": "view",
      "type": "function"
    },
    {
      "constant": true,
      "inputs": [
        {
          "internalType": "uint256",
          "name": "",
          "type": "uint256"
        }
      ],
      "name": "stakers",
      "outputs": [
        {
          "internalType": "address",
          "name": "",
          "type": "address"
        }
      ],
      "payable": false,
      "stateMutability": "view",
      "type": "function"
    },
    {
      "constant": true,
      "inputs": [
        {
          "internalType": "address",
          "name": "",
          "type": "address"
        }
      ],
      "name": "stakingBalance",
      "outputs": [
        {
          "internalType": "uint256",
          "name": "",
          "type": "uint256"
        }
      ],
      "payable": false,
      "stateMutability": "view",
      "type": "function"
    },
    {
      "constant": true,
      "inputs": [],
      "name": "tether",
      "outputs": [
        {
          "internalType": "contract Tether",
          "name": "",
          "type": "address"
        }
      ],
      "payable": false,
      "stateMutability": "view",
      "type": "function"
    },
    {
      "constant": false,
      "inputs": [
        {
          "internalType": "uint256",
          "name": "_amount",
          "type": "uint256"
        }
      ],
      "name": "depositTokens",
      "outputs": [],
      "payable": false,
      "stateMutability": "nonpayable",
      "type": "function"
    },
    {
      "constant": false,
      "inputs": [],
      "name": "issueTokens",
      "outputs": [],
      "payable": false,
      "stateMutability": "nonpayable",
      "type": "function"
    },
    {
      "constant": false,
      "inputs": [],
      "name": "unstakeTokens",
      "outputs": [],
      "payable": false,
      "stateMutability": "nonpayable",
      "type": "function"
    }
  ],
  "bytecode": "0x60c0604052600e60808190526d446563656e7472616c2042616e6b60901b60a090815261002f91600091906100a8565b5034801561003c57600080fd5b506040516108a83803806108a88339818101604052604081101561005f57600080fd5b508051602090910151600380546001600160a01b039384166001600160a01b03199182161790915560028054939092169281169290921790556001805490911633179055610143565b828054600181600116156101000203166002900490600052602060002090601f016020900481019282601f106100e957805160ff1916838001178555610116565b82800160010185558215610116579182015b828111156101165782518255916020019190600101906100fb565b50610122929150610126565b5090565b61014091905b80821115610122576000815560010161012c565b90565b610756806101526000396000f3fe608060405234801561001057600080fd5b50600436106100a95760003560e01c80636177fd18116100715780636177fd18146101995780638da5cb5b146101d3578063a5ce413b146101db578063c93c8f34146101e3578063dd49756e14610209578063fd5e6dd114610226576100a9565b806306fdde03146100ae5780631a8972d31461012b57806345bc78ab1461014f5780635efc071a1461018757806360ab58521461018f575b600080fd5b6100b6610243565b6040805160208082528351818301528351919283929083019185019080838360005b838110156100f05781810151838201526020016100d8565b50505050905090810190601f16801561011d5780820380516001836020036101000a031916815260200191505b509250505060405180910390f35b6101336102d1565b604080516001600160a01b039092168252519081900360200190f35b6101756004803603602081101561016557600080fd5b50356001600160a01b03166102e0565b60408051918252519081900360200190f35b6101336102f2565b610197610301565b005b6101bf600480360360208110156101af57600080fd5b50356001600160a01b031661043a565b604080519115158252519081900360200190f35b61013361044f565b61019761045e565b6101bf600480360360208110156101f957600080fd5b50356001600160a01b0316610551565b6101976004803603602081101561021f57600080fd5b5035610566565b6101336004803603602081101561023c57600080fd5b50356106d4565b6000805460408051602060026001851615610100026000190190941693909304601f810184900484028201840190925281815292918301828280156102c95780601f1061029e576101008083540402835291602001916102c9565b820191906000526020600020905b8154815290600101906020018083116102ac57829003601f168201915b505050505081565b6003546001600160a01b031681565b60056020526000908152604090205481565b6002546001600160a01b031681565b6001546001600160a01b03163314610360576040805162461bcd60e51b815260206004820152601860248201527f63616c6c6572206d75737420626520746865206f776e65720000000000000000604482015290519081900360640190fd5b60005b6004548110156104375760006004828154811061037c57fe5b60009182526020808320909101546001600160a01b03168083526005909152604090912054909150801561042d576003546040805163a9059cbb60e01b81526001600160a01b038581166004830152602482018590529151919092169163a9059cbb9160448083019260209291908290030181600087803b15801561040057600080fd5b505af1158015610414573d6000803e3d6000fd5b505050506040513d602081101561042a57600080fd5b50505b5050600101610363565b50565b60076020526000908152604090205460ff1681565b6001546001600160a01b031681565b33600090815260056020526040902054806104aa5760405162461bcd60e51b81526004018080602001828103825260268152602001806106fc6026913960400191505060405180910390fd5b6002546040805163a9059cbb60e01b81523360048201526024810184905290516001600160a01b039092169163a9059cbb916044808201926020929091908290030181600087803b1580156104fe57600080fd5b505af1158015610512573d6000803e3d6000fd5b505050506040513d602081101561052857600080fd5b505033600090815260056020908152604080832083905560079091529020805460ff1916905550565b60066020526000908152604090205460ff1681565b600081116105af576040805162461bcd60e51b81526020600482015260116024820152700616d6f6e742063616e6e6f74206265203607c1b604482015290519081900360640190fd5b600254604080516323b872dd60e01b81523360048201523060248201526044810184905290516001600160a01b03909216916323b872dd916064808201926020929091908290030181600087803b15801561060957600080fd5b505af115801561061d573d6000803e3d6000fd5b505050506040513d602081101561063357600080fd5b5050336000908152600560209081526040808320805485019055600690915290205460ff1661069f57600480546001810182556000919091527f8a35acfbc15ff81a39ae7d344fd709f28e8600b4aa8c65c6b64bfe7fe36bd19b0180546001600160a01b031916331790555b503360009081526007602090815260408083208054600160ff1991821681179092556006909352922080549091169091179055565b600481815481106106e157fe5b6000918252602090912001546001600160a01b031690508156fe7374616b696e672062616c616e63652063616e74206265206c657373207468616e207a65726fa265627a7a723158207ab1a9f57f4af75ad1776f05bc6dea550c5ba0150364ff8b65151eb60f45abfd64736f6c63430005110032",
  "source": "// SPDX-License-Identifier: MIT\r\npragma solidity >=0.4.22 <0.9.0;\r\n\r\nimport \"./RWD.sol\";\r\nimport \"./Tether.sol\";\r\n\r\ncontract DecentralBank {\r\n    string public name = \"Decentral Bank\";\r\n    address public owner;\r\n    Tether public tether;\r\n    RWD public rwd;\r\n\r\n    address[] public stakers;\r\n\r\n    mapping(address => uint) public stakingBalance;\r\n    mapping(address => bool) public hasStaked;\r\n    mapping(address => bool) public isStaked;\r\n\r\n    constructor(RWD _rwd, Tether _tether) public {\r\n        rwd = _rwd;\r\n        tether = _tether;\r\n        owner = msg.sender;\r\n    }\r\n\r\n    function depositTokens(uint _amount) public {\r\n        require(_amount > 0, \"amont cannot be 0\");\r\n\r\n        //Transfer tether tokes to this contract address for staking\r\n        tether.transferFrom(msg.sender, address(this), _amount);\r\n\r\n        //Update staking balance\r\n        stakingBalance[msg.sender] += _amount;\r\n\r\n        if (!hasStaked[msg.sender]) {\r\n            stakers.push(msg.sender);\r\n        }\r\n\r\n        //Update staking balance\r\n        isStaked[msg.sender] = true;\r\n        hasStaked[msg.sender] = true;\r\n    }\r\n\r\n    //issue rewards\r\n    function issueTokens() public {\r\n        //require only the onwner to issue tokens\r\n        require(msg.sender == owner, \"caller must be the owner\");\r\n\r\n        for (uint i = 0; i < stakers.length; i++) {\r\n            address recipient = stakers[i];\r\n            uint balance = stakingBalance[recipient];\r\n            if (balance > 0) {\r\n                rwd.transfer(recipient, balance);\r\n            }\r\n        }\r\n    }\r\n\r\n    //unstake tokens\r\n    function unstakeTokens() public {\r\n        uint balance = stakingBalance[msg.sender];\r\n        require(balance > 0, \"staking balance cant be less than zero\");\r\n\r\n        //transfer the tokens to the specified contract address from our bank\r\n        tether.transfer(msg.sender, balance);\r\n\r\n        //reset staking balance\r\n        stakingBalance[msg.sender] = 0;\r\n\r\n        //update staking status\r\n        isStaked[msg.sender] = false;\r\n    }\r\n}\r\n",
  "sourcePath": "C:\\Users\\pavel\\Desktop\\CryptoBankProject\\defi-staking-app-starter\\defi-staking-app-starter\\src\\contracts\\DecentralBank.sol",
  "compiler": {
    "name": "solc",
    "version": "0.5.17+commit.d19bba13.Emscripten.clang"
  },
  "schemaVersion": "3.4.16",
  "updatedAt": "2024-09-29T13:24:18.292Z",
  "networkType": "ethereum",
  "devdoc": {
    "methods": {}
  },
  "userdoc": {
    "methods": {}
  }
}