{
  "contractName": "Tether",
  "abi": [
    {
      "inputs": [],
      "payable": false,
      "stateMutability": "nonpayable",
      "type": "constructor"
    },
    {
      "anonymous": false,
      "inputs": [
        {
          "indexed": true,
          "internalType": "address",
          "name": "_owner",
          "type": "address"
        },
        {
          "indexed": true,
          "internalType": "address",
          "name": "_spender",
          "type": "address"
        },
        {
          "indexed": false,
          "internalType": "uint256",
          "name": "_value",
          "type": "uint256"
        }
      ],
      "name": "Approval",
      "type": "event"
    },
    {
      "anonymous": false,
      "inputs": [
        {
          "indexed": true,
          "internalType": "address",
          "name": "_from",
          "type": "address"
        },
        {
          "indexed": true,
          "internalType": "address",
          "name": "_to",
          "type": "address"
        },
        {
          "indexed": false,
          "internalType": "uint256",
          "name": "_value",
          "type": "uint256"
        }
      ],
      "name": "Transfer",
      "type": "event"
    },
    {
      "constant": true,
      "inputs": [
        {
          "internalType": "address",
          "name": "",
          "type": "address"
        },
        {
          "internalType": "address",
          "name": "",
          "type": "address"
        }
      ],
      "name": "allownce",
      "outputs": [
        {
          "internalType": "uint256",
          "name": "",
          "type": "uint256"
        }
      ],
      "payable": false,
      "stateMutability": "view",
      "type": "function"
    },
    {
      "constant": true,
      "inputs": [
        {
          "internalType": "address",
          "name": "",
          "type": "address"
        }
      ],
      "name": "balanceOf",
      "outputs": [
        {
          "internalType": "uint256",
          "name": "",
          "type": "uint256"
        }
      ],
      "payable": false,
      "stateMutability": "view",
      "type": "function"
    },
    {
      "constant": true,
      "inputs": [],
      "name": "decimals",
      "outputs": [
        {
          "internalType": "uint8",
          "name": "",
          "type": "uint8"
        }
      ],
      "payable": false,
      "stateMutability": "view",
      "type": "function"
    },
    {
      "constant": true,
      "inputs": [],
      "name": "name",
      "outputs": [
        {
          "internalType": "string",
          "name": "",
          "type": "string"
        }
      ],
      "payable": false,
      "stateMutability": "view",
      "type": "function"
    },
    {
      "constant": true,
      "inputs": [],
      "name": "symbol",
      "outputs": [
        {
          "internalType": "string",
          "name": "",
          "type": "string"
        }
      ],
      "payable": false,
      "stateMutability": "view",
      "type": "function"
    },
    {
      "constant": true,
      "inputs": [],
      "name": "totalSupply",
      "outputs": [
        {
          "internalType": "uint256",
          "name": "",
          "type": "uint256"
        }
      ],
      "payable": false,
      "stateMutability": "view",
      "type": "function"
    },
    {
      "constant": false,
      "inputs": [
        {
          "internalType": "address",
          "name": "_to",
          "type": "address"
        },
        {
          "internalType": "uint256",
          "name": "_value",
          "type": "uint256"
        }
      ],
      "name": "transfer",
      "outputs": [
        {
          "internalType": "bool",
          "name": "success",
          "type": "bool"
        }
      ],
      "payable": false,
      "stateMutability": "nonpayable",
      "type": "function"
    },
    {
      "constant": false,
      "inputs": [
        {
          "internalType": "address",
          "name": "_from",
          "type": "address"
        },
        {
          "internalType": "address",
          "name": "_to",
          "type": "address"
        },
        {
          "internalType": "uint256",
          "name": "_value",
          "type": "uint256"
        }
      ],
      "name": "transferFrom",
      "outputs": [
        {
          "internalType": "bool",
          "name": "success",
          "type": "bool"
        }
      ],
      "payable": false,
      "stateMutability": "nonpayable",
      "type": "function"
    },
    {
      "constant": false,
      "inputs": [
        {
          "internalType": "address",
          "name": "_spender",
          "type": "address"
        },
        {
          "internalType": "uint256",
          "name": "_value",
          "type": "uint256"
        }
      ],
      "name": "approve",
      "outputs": [
        {
          "internalType": "bool",
          "name": "success",
          "type": "bool"
        }
      ],
      "payable": false,
      "stateMutability": "nonpayable",
      "type": "function"
    }
  ],
  "bytecode": "0x60c0604052601160808190527026b7b1b5902a32ba3432b9102a37b5b2b760791b60a090815261003291600091906100a0565b50604080518082019091526005808252641b5554d11560da1b602090920191825261005f916001916100a0565b5069d3c21bcecceda10000006002556003805460ff1916601217905534801561008757600080fd5b506002543360009081526004602052604090205561013b565b828054600181600116156101000203166002900490600052602060002090601f016020900481019282601f106100e157805160ff191683800117855561010e565b8280016001018555821561010e579182015b8281111561010e5782518255916020019190600101906100f3565b5061011a92915061011e565b5090565b61013891905b8082111561011a5760008155600101610124565b90565b6105b58061014a6000396000f3fe608060405234801561001057600080fd5b50600436106100935760003560e01c8063313ce56711610066578063313ce567146101a557806370a08231146101c357806395d89b41146101e9578063a20bc7fe146101f1578063a9059cbb1461021f57610093565b806306fdde0314610098578063095ea7b31461011557806318160ddd1461015557806323b872dd1461016f575b600080fd5b6100a061024b565b6040805160208082528351818301528351919283929083019185019080838360005b838110156100da5781810151838201526020016100c2565b50505050905090810190601f1680156101075780820380516001836020036101000a031916815260200191505b509250505060405180910390f35b6101416004803603604081101561012b57600080fd5b506001600160a01b0381351690602001356102d9565b604080519115158252519081900360200190f35b61015d61033f565b60408051918252519081900360200190f35b6101416004803603606081101561018557600080fd5b506001600160a01b03813581169160208101359091169060400135610345565b6101ad610425565b6040805160ff9092168252519081900360200190f35b61015d600480360360208110156101d957600080fd5b50356001600160a01b031661042e565b6100a0610440565b61015d6004803603604081101561020757600080fd5b506001600160a01b038135811691602001351661049a565b6101416004803603604081101561023557600080fd5b506001600160a01b0381351690602001356104b7565b6000805460408051602060026001851615610100026000190190941693909304601f810184900484028201840190925281815292918301828280156102d15780601f106102a6576101008083540402835291602001916102d1565b820191906000526020600020905b8154815290600101906020018083116102b457829003601f168201915b505050505081565b3360008181526005602090815260408083206001600160a01b038716808552908352818420869055815186815291519394909390927f8c5be1e5ebec7d5bd14f71427d1e84f3dd0314c0f7b2291e5b200ac8c7c3b925928290030190a350600192915050565b60025481565b6001600160a01b03831660009081526004602052604081205482111561036a57600080fd5b6001600160a01b038416600090815260056020908152604080832033845290915290205482111561039a57600080fd5b6001600160a01b03808416600081815260046020908152604080832080548801905593881680835284832080548890039055338352600582528483208184528252918490208054879003905583518681529351929391927fddf252ad1be2c89b69c2b068fc378daa952ba7f163c4a11628f55a4df523b3ef9281900390910190a35060019392505050565b60035460ff1681565b60046020526000908152604090205481565b60018054604080516020600284861615610100026000190190941693909304601f810184900484028201840190925281815292918301828280156102d15780601f106102a6576101008083540402835291602001916102d1565b600560209081526000928352604080842090915290825290205481565b33600090815260046020526040812054821115610512576040805162461bcd60e51b8152602060048201526014602482015273496e73756666696369656e742062616c616e636560601b604482015290519081900360640190fd5b336000818152600460209081526040808320805487900390556001600160a01b03871680845292819020805487019055805186815290519293927fddf252ad1be2c89b69c2b068fc378daa952ba7f163c4a11628f55a4df523b3ef929181900390910190a35060019291505056fea265627a7a723158204e6f6e956ff7e423d45b872d376d765a9f72b8e533284b42a401d750dedb319964736f6c63430005110032",
  "source": "// SPDX-License-Identifier: MIT\r\npragma solidity >=0.4.22 <0.9.0;\r\n\r\ncontract Tether {\r\n    string public name = \"Mock Tether Token\";\r\n    string public symbol = \"mUSDT\";\r\n    uint256 public totalSupply = 1000000000000000000000000; // 1 million tokens\r\n    uint8 public decimals = 18;\r\n\r\n    event Transfer(address indexed _from, address indexed _to, uint _value);\r\n\r\n    event Approval(\r\n        address indexed _owner,\r\n        address indexed _spender,\r\n        uint _value\r\n    );\r\n\r\n    mapping(address => uint) public balanceOf;\r\n    mapping(address => mapping(address => uint256)) public allownce;\r\n\r\n    constructor() public {\r\n        balanceOf[msg.sender] = totalSupply; // Assign all tokens to the contract deployer\r\n    }\r\n\r\n    function transfer(address _to, uint _value) public returns (bool success) {\r\n        require(balanceOf[msg.sender] >= _value, \"Insufficient balance\");\r\n        balanceOf[msg.sender] -= _value;\r\n        balanceOf[_to] += _value;\r\n        emit Transfer(msg.sender, _to, _value);\r\n        return true;\r\n    }\r\n\r\n    function transferFrom(\r\n        address _from,\r\n        address _to,\r\n        uint256 _value\r\n    ) public returns (bool success) {\r\n        require(_value <= balanceOf[_from]);\r\n        require(_value <= allownce[_from][msg.sender]);\r\n        balanceOf[_to] += _value;\r\n        balanceOf[_from] -= _value;\r\n        allownce[msg.sender][_from] -= _value;\r\n\r\n        emit Transfer(_from, _to, _value);\r\n        return true;\r\n    }\r\n\r\n    function approve(\r\n        address _spender,\r\n        uint _value\r\n    ) public returns (bool success) {\r\n        allownce[msg.sender][_spender] = _value;\r\n        emit Approval(msg.sender, _spender, _value);\r\n        return true;\r\n    }\r\n}\r\n",
  "sourcePath": "C:\\Users\\pavel\\Desktop\\CryptoBankProject\\defi-staking-app-starter\\defi-staking-app-starter\\src\\contracts\\Tether.sol",
  "compiler": {
    "name": "solc",
    "version": "0.5.17+commit.d19bba13.Emscripten.clang"
  },
  "schemaVersion": "3.4.16",
  "updatedAt": "2024-09-29T13:24:18.281Z",
  "networkType": "ethereum",
  "devdoc": {
    "methods": {}
  },
  "userdoc": {
    "methods": {}
  }
}